{
  "contractName": "FlightData2",
  "abi": [
    {
      "constant": false,
      "inputs": [
        {
          "name": "_timestamps",
          "type": "string"
        },
        {
          "name": "_planeData",
          "type": "string"
        },
        {
          "name": "_airlineData",
          "type": "string"
        },
        {
          "name": "_lateCodeData",
          "type": "string"
        },
        {
          "name": "_destinationData",
          "type": "string"
        },
        {
          "name": "_departureData",
          "type": "string"
        },
        {
          "name": "_taskNamesArray",
          "type": "string"
        },
        {
          "name": "_tasksValuesArray",
          "type": "string"
        }
      ],
      "name": "setter",
      "outputs": [],
      "payable": false,
      "stateMutability": "nonpayable",
      "type": "function"
    },
    {
      "constant": true,
      "inputs": [],
      "name": "getter",
      "outputs": [
        {
          "name": "",
          "type": "string"
        },
        {
          "name": "",
          "type": "string"
        },
        {
          "name": "",
          "type": "string"
        },
        {
          "name": "",
          "type": "string"
        },
        {
          "name": "",
          "type": "string"
        },
        {
          "name": "",
          "type": "string"
        },
        {
          "name": "",
          "type": "string"
        },
        {
          "name": "",
          "type": "string"
        }
      ],
      "payable": false,
      "stateMutability": "view",
      "type": "function"
    }
  ],
  "bytecode": "0x608060405234801561001057600080fd5b50610ac8806100206000396000f3fe608060405260043610610046576000357c0100000000000000000000000000000000000000000000000000000000900480630f71cd711461004b578063993a04b714610074575b600080fd5b34801561005757600080fd5b50610072600480360361006d9190810190610779565b6100a6565b005b34801561008057600080fd5b50610089610168565b60405161009d989796959493929190610921565b60405180910390f35b87600090805190602001906100bc92919061067e565b5086600190805190602001906100d392919061067e565b5085600290805190602001906100ea92919061067e565b50846003908051906020019061010192919061067e565b50836004908051906020019061011892919061067e565b50826005908051906020019061012f92919061067e565b50816006908051906020019061014692919061067e565b50806007908051906020019061015d92919061067e565b505050505050505050565b60608060608060608060608060006001600260036004600560066007878054600181600116156101000203166002900480601f0160208091040260200160405190810160405280929190818152602001828054600181600116156101000203166002900480156102195780601f106101ee57610100808354040283529160200191610219565b820191906000526020600020905b8154815290600101906020018083116101fc57829003601f168201915b50505050509750868054600181600116156101000203166002900480601f0160208091040260200160405190810160405280929190818152602001828054600181600116156101000203166002900480156102b55780601f1061028a576101008083540402835291602001916102b5565b820191906000526020600020905b81548152906001019060200180831161029857829003601f168201915b50505050509650858054600181600116156101000203166002900480601f0160208091040260200160405190810160405280929190818152602001828054600181600116156101000203166002900480156103515780601f1061032657610100808354040283529160200191610351565b820191906000526020600020905b81548152906001019060200180831161033457829003601f168201915b50505050509550848054600181600116156101000203166002900480601f0160208091040260200160405190810160405280929190818152602001828054600181600116156101000203166002900480156103ed5780601f106103c2576101008083540402835291602001916103ed565b820191906000526020600020905b8154815290600101906020018083116103d057829003601f168201915b50505050509450838054600181600116156101000203166002900480601f0160208091040260200160405190810160405280929190818152602001828054600181600116156101000203166002900480156104895780601f1061045e57610100808354040283529160200191610489565b820191906000526020600020905b81548152906001019060200180831161046c57829003601f168201915b50505050509350828054600181600116156101000203166002900480601f0160208091040260200160405190810160405280929190818152602001828054600181600116156101000203166002900480156105255780601f106104fa57610100808354040283529160200191610525565b820191906000526020600020905b81548152906001019060200180831161050857829003601f168201915b50505050509250818054600181600116156101000203166002900480601f0160208091040260200160405190810160405280929190818152602001828054600181600116156101000203166002900480156105c15780601f10610596576101008083540402835291602001916105c1565b820191906000526020600020905b8154815290600101906020018083116105a457829003601f168201915b50505050509150808054600181600116156101000203166002900480601f01602080910402602001604051908101604052809291908181526020018280546001816001161561010002031660029004801561065d5780601f106106325761010080835404028352916020019161065d565b820191906000526020600020905b81548152906001019060200180831161064057829003601f168201915b50505050509050975097509750975097509750975097509091929394959697565b828054600181600116156101000203166002900490600052602060002090601f016020900481019282601f106106bf57805160ff19168380011785556106ed565b828001600101855582156106ed579182015b828111156106ec5782518255916020019190600101906106d1565b5b5090506106fa91906106fe565b5090565b61072091905b8082111561071c576000816000905550600101610704565b5090565b90565b600082601f830112151561073657600080fd5b813561074961074482610a04565b6109d7565b9150808252602083016020830185838301111561076557600080fd5b610770838284610a3b565b50505092915050565b600080600080600080600080610100898b03121561079657600080fd5b600089013567ffffffffffffffff8111156107b057600080fd5b6107bc8b828c01610723565b985050602089013567ffffffffffffffff8111156107d957600080fd5b6107e58b828c01610723565b975050604089013567ffffffffffffffff81111561080257600080fd5b61080e8b828c01610723565b965050606089013567ffffffffffffffff81111561082b57600080fd5b6108378b828c01610723565b955050608089013567ffffffffffffffff81111561085457600080fd5b6108608b828c01610723565b94505060a089013567ffffffffffffffff81111561087d57600080fd5b6108898b828c01610723565b93505060c089013567ffffffffffffffff8111156108a657600080fd5b6108b28b828c01610723565b92505060e089013567ffffffffffffffff8111156108cf57600080fd5b6108db8b828c01610723565b9150509295985092959890939650565b60006108f682610a30565b80845261090a816020860160208601610a4a565b61091381610a7d565b602085010191505092915050565b600061010082019050818103600083015261093c818b6108eb565b90508181036020830152610950818a6108eb565b9050818103604083015261096481896108eb565b9050818103606083015261097881886108eb565b9050818103608083015261098c81876108eb565b905081810360a08301526109a081866108eb565b905081810360c08301526109b481856108eb565b905081810360e08301526109c881846108eb565b90509998505050505050505050565b6000604051905081810181811067ffffffffffffffff821117156109fa57600080fd5b8060405250919050565b600067ffffffffffffffff821115610a1b57600080fd5b601f19601f8301169050602081019050919050565b600081519050919050565b82818337600083830152505050565b60005b83811015610a68578082015181840152602081019050610a4d565b83811115610a77576000848401525b50505050565b6000601f19601f830116905091905056fea265627a7a72305820b6c50158fdf583b09f0acdfa201a62a3ab25e3c786e41d81eb5e6279b85384f36c6578706572696d656e74616cf50037",
  "source": "// SPDX-License-Identifier: MIT \r\npragma solidity >=0.5.0 <0.9.0;\r\npragma experimental ABIEncoderV2;\r\n\r\ncontract FlightData2 {\r\n    \r\n        string timestamps;\r\n        string planeData;\r\n        string airlineData;\r\n        string lateCodeData;\r\n        string destinationData;\r\n        string departureData;\r\n        \r\n        string taskNamesArray;\r\n        string tasksValuesArray;\r\n\r\n\r\n\r\n\r\n    function setter(string memory _timestamps,string memory _planeData,string memory _airlineData,string memory _lateCodeData,string memory _destinationData,string memory _departureData,string memory _taskNamesArray,string memory _tasksValuesArray) public {\r\n        \r\n        timestamps=_timestamps;\r\n        planeData=_planeData;\r\n        airlineData=_airlineData;\r\n        lateCodeData=_lateCodeData;\r\n        destinationData=_destinationData;\r\n        departureData=_departureData;\r\n        taskNamesArray=_taskNamesArray;\r\n        tasksValuesArray=_tasksValuesArray;\r\n        \r\n    }\r\n\r\n\r\n    function getter() public view returns (string memory,string memory,string memory,string memory,string memory,string memory,string memory,string memory) {\r\n        return (timestamps,planeData,airlineData,lateCodeData,destinationData,departureData,taskNamesArray,tasksValuesArray);\r\n    }\r\n\r\n}",
  "sourcePath": "C:\\Users\\alero\\Desktop\\SiacaTurnarounds\\SiacaTurnaroundsFront\\SiacaTurnaroundsFront\\siaca-turnarounds-front\\contracts\\FlightData2.sol",
  "compiler": {
    "name": "solc",
    "version": "0.5.1+commit.c8a2cb62.Emscripten.clang"
  },
  "schemaVersion": "3.4.16",
  "updatedAt": "2024-04-12T03:36:03.560Z",
  "networkType": "ethereum",
  "devdoc": {
    "methods": {}
  },
  "userdoc": {
    "methods": {}
  }
}